S01B0000457265646F3030315F4C6162345F50617274332E73726563BE
S113000045C0000061C000005FC000005DC000008A
S11300105BC0000059C0000057C0000055C000007C
S113002053C0000051C000004FC000004DC000008C
S11300304BC00000DEC5000047C0000045C0000002
S113004043C0000041C000003FC000003DC00000AC
S11300503BC0000039C0000037C0000035C00000BC
S113006033C0000031C000002FC000002DC00000CC
S11300702BC0000029C0000027C0000025C00000DC
S113008023C0000021C000001FC0000011241FBEB7
S1130090CFEFD0E4DEBFCDBF11E0A0E0B1E0E4E6F5
S11300A0F6E100E00BBF02C007900D92A031B1074A
S11300B0D9F727E0A0E1B1E001C01D92A135B20754
S11300C0E1F785D20C94300B9BCFCF93DF9300D014
S11300D000D0CDB7DEB79C838B831A82198299D75F
S11300E08091EE069091EF06892B31F481E191E045
S11300F09093EF068093EE062091EC063091ED0686
S11301008B819C81820F931F8B3D954038F5209104
S1130110EC063091ED068B819C81280F391F80916C
S1130120EC069091ED0682179307C0F42091EE0639
S11301303091EF068091EC069091ED06820F931FAB
S11301409A8389832091EC063091ED068B819C8102
S1130150820F931F9093ED068093EC0667D78981F5
S11301609A810F900F900F900F90DF91CF91089587
S1130170CF93DF9300D0CDB7DEB79A838983000095
S11301800F900F90DF91CF910895CF93DF9300D01C
S1130190CDB7DEB79A83898389819A819C012D5FCB
S11301A03F4F89819A81FC013283218389819A811D
S11301B02FEF3FEFFC013483238389819A819C01D3
S11301C02D5F3F4F89819A81FC0136832583898184
S11301D09A819C012D5F3F4F89819A81FC01308770
S11301E0278389819A81FC01108200000F900F906F
S11301F0DF91CF910895CF93DF9300D0CDB7DEB7D1
S11302009A83898389819A81FC0111861086000072
S11302100F900F90DF91CF910895CF93DF9300D08B
S113022000D000D0CDB7DEB79C838B837E836D83F3
S11302308B819C81FC01818192819A8389838D8148
S11302409E8129813A81FC013383228389819A81A9
S1130250FC01248135818D819E81FC0135832483B9
S113026089819A81FC01848195812D813E81FC01E3
S11302703383228389819A812D813E81FC013583D8
S113028024838D819E812B813C81FC0131872087D1
S11302908B819C81FC01808121E0280F8B819C81D2
S11302A0FC012083000026960FB6F894DEBF0FBE33
S11302B0CDBFDF91CF910895CF93DF93CDB7DEB754
S11302C028970FB6F894DEBF0FBECDBF9E838D83F3
S11302D078876F838F819885FC01808191819C83CD
S11302E08B838B819C81019641F48D819E81FC01DD
S11302F0878190859A8389831AC08D819E81039614
S11303009A83898307C089819A81FC0182819381C0
S11303109A83898389819A81FC0182819381FC017A
S1130320208131818B819C818217930760F78981B9
S11303309A81FC01228133818F819885FC0133836A
S113034022838F819885FC01828193812F81388556
S1130350FC01358324838F81988529813A81FC01AE
S11303603583248389819A812F813885FC013383E5
S113037022838F8198852D813E81FC0131872087DE
S11303808D819E81FC01808121E0280F8D819E81D9
S1130390FC012083000028960FB6F894DEBF0FBE40
S11303A0CDBFDF91CF910895CF93DF9300D000D0DC
S11303B0CDB7DEB79C838B838B819C81FC018085C8
S11303C091859A8389838B819C81FC0182819381AD
S11303D02B813C81F90124813581FC0135832483FF
S11303E08B819C81FC01848195812B813C81F90165
S11303F022813381FC013383228389819A81FC0128
S1130400218132818B819C812817390751F48B819A
S11304109C81FC012481358189819A81FC0132838C
S113042021838B819C81FC011186108689819A81AC
S1130430FC0180812FEF280F89819A81FC012083A0
S113044089819A81FC0180810F900F900F900F9009
S1130450DF91CF910895CF93DF93CDB7DEB710929C
S11304604F070000DF91CF910895CF93DF93CDB76D
S1130470DEB780914F07882F90E08130910579F0A5
S113048082309105F1F0892B41F581E080934E078C
S11304908BE290E020914E07FC0120831EC08BE28A
S11304A090E020914E07FC01208380914E07880F35
S11304B080934E078BE290E020914E07FC0120834D
S11304C00CC080914E07869580934E078BE290E096
S11304D020914E07FC012083000080914F07882F54
S11304E090E08130910551F08230910531F1892BF2
S11304F009F042C081E080934F073EC080E290E063
S1130500FC018081882F90E081709927892B21F448
S113051082E080934F0730C08091F006863048F423
S113052081E080934F078091F0068F5F8093F006FF
S113053023C082E080934F071FC080E290E0FC015B
S11305408081882F90E081709927892B21F481E0A4
S113055080934F0710C08091F006882349F082E011
S113056080934F078091F00681508093F00603C07A
S113057081E080934F0700000000DF91CF91089540
S1130580CF93DF93CDB7DEB766DF6FDF8CE291E008
S1130590EED4FBCFEF92FF920F93CF93DF931F9292
S11305A0CDB7DEB78983E12CF12C098120E030E05E
S11305B045E550E060E071E080EC92E01DD300007E
S11305C00F90DF91CF910F91FF90EF900895CF930B
S11305D0DF93CDB7DEB781E290E0FC01108282E2C6
S11305E090E02FEFFC0120838AE290E02FEFFC01E2
S11305F020838BE290E0FC01108281E0CBDFD6D433
S113060080E090E0DF91CF910895CF93DF93CDB751
S1130610DEB728970FB6F894DEBF0FBECDBF9C831C
S11306208B837E836D8358874F838B819C8121E1EB
S1130630FC0120838B819C8101979C838B838B811C
S11306409C8122E2FC0120838B819C8101979C8305
S11306508B838B819C8123E3FC0120838B819C8190
S113066001979C838B838D819E819A8389832981C1
S11306708B819C81FC0120838B819C8101979C83CD
S11306808B8389819A81892F99279A8389832981E8
S11306908B819C81FC0120838B819C8101979C83AD
S11306A08B838B819C81FC0110828B819C810197BF
S11306B09C838B838B819C8120E8FC0120838B812C
S11306C09C8101979C838B838B819C81FC0110828C
S11306D08B819C8101979C838B838B819C8122E0FD
S11306E0FC0120838B819C8101979C838B838B816C
S11306F09C8123E0FC0120838B819C8101979C8356
S11307008B838B819C8124E0FC0120838B819C81E1
S113071001979C838B838B819C8125E0FC01208342
S11307208B819C8101979C838B838B819C8126E0A8
S1130730FC0120838B819C8101979C838B838B811B
S11307409C8127E0FC0120838B819C8101979C8301
S11307508B838B819C8128E0FC0120838B819C818D
S113076001979C838B838B819C8129E0FC012083EE
S11307708B819C8101979C838B838B819C8120E15D
S1130780FC0120838B819C8101979C838B838B81CB
S11307909C8121E1FC0120838B819C8101979C83B6
S11307A08B838B819C8122E1FC0120838B819C8142
S11307B001979C838B838B819C8123E1FC012083A3
S11307C08B819C8101979C838B838B819C8124E109
S11307D0FC0120838B819C8101979C838B838B817B
S11307E09C8125E1FC0120838B819C8101979C8362
S11307F08B838B819C8126E1FC0120838B819C81EE
S113080001979C838B838B819C8127E1FC0120834E
S11308108B819C8101979C838B838B819C8128E1B4
S1130820FC0120838B819C8101979C838B838B812A
S11308309C8129E1FC0120838B819C8101979C830D
S11308408B838B819C8120E2FC0120838B819C81A2
S113085001979C838B838B819C8121E2FC01208303
S11308608B819C8101979C838B838B819C8122E269
S1130870FC0120838B819C8101979C838B838B81DA
S11308809C8123E2FC0120838B819C8101979C83C2
S11308908B838F8198859A83898329818B819C811D
S11308A0FC0120838B819C8101979C838B838981AC
S11308B09A81892F99279A83898329818B819C81A5
S11308C0FC0120838B819C8101979C838B838B818A
S11308D09C8126E2FC0120838B819C8101979C836F
S11308E08B838B819C8127E2FC0120838B819C81FB
S11308F001979C838B838B819C8128E2FC0120835C
S11309008B819C8101979C838B838B819C8129E2C1
S1130910FC0120838B819C8101979C838B838B8139
S11309209C8120E3FC0120838B819C8101979C8323
S11309308B838B819C8121E3FC0120838B819C81AF
S113094001979C838B838B819C8128960FB6F894A6
S1130950DEBF0FBECDBFDF91CF910895CF93DF935C
S1130960CDB7DEB7E4D0A091F106B091F206CD91F7
S1130970CDBFDD91DEBFFF91EF91DF91CF91BF91AC
S1130980AF919F918F917F916F915F914F913F9123
S11309902F911F910F91FF90EF90DF90CF90BF9018
S11309A0AF909F908F907F906F905F904F903F900B
S11309B02F901F900F900FBE0F90089581E0DF914C
S11309C0CF9108950F920FB6F8940F921F921124AD
S11309D02F923F924F925F926F927F928F929F924B
S11309E0AF92BF92CF92DF92EF92FF920F931F9339
S11309F02F933F934F935F936F937F938F939F9323
S1130A00AF93BF93CF93DF93EF93FF93A091F1063E
S1130A10B091F2060DB60D920EB60D9282D4A0914D
S1130A20F106B091F206CD91CDBFDD91DEBFFF910D
S1130A30EF91DF91CF91BF91AF919F918F917F9172
S1130A406F915F914F913F912F911F910F91FF9063
S1130A50EF90DF90CF90BF90AF909F908F907F905A
S1130A606F905F904F903F902F901F900F900FBE0C
S1130A700F90089500000F920FB6F8940F921F92F2
S1130A8011242F923F924F925F926F927F928F9296
S1130A909F92AF92BF92CF92DF92EF92FF920F9309
S1130AA01F932F933F934F935F936F937F938F93F2
S1130AB09F93AF93BF93CF93DF93EF93FF93A09153
S1130AC0F106B091F2060DB60D920EB60D923FD31B
S1130AD0882309F026D4A091F106B091F206CD91B5
S1130AE0CDBFDD91DEBFFF91EF91DF91CF91BF913B
S1130AF0AF919F918F917F916F915F914F913F91B2
S1130B002F911F910F91FF90EF90DF90CF90BF90A6
S1130B10AF909F908F907F906F905F904F903F9099
S1130B202F901F900F900FBE0F9008950000CF9349
S1130B30DF9300D000D000D0CDB7DEB780E49FE1D2
S1130B40A0E0B0E089839A83AB83BC8389819A81D6
S1130B50AB81BC81689415F8B695A7959795879550
S1130B601694D1F789839A83AB83BC8389819A8154
S1130B70AB81BC810197A109B10989839A83AB83B5
S1130B80BC8389818D8389819A81AB81BC81892FC2
S1130B909A2FAB2FBB2789839A83AB83BC8389812C
S1130BA08E8389E890E02E81FC01208388E890E020
S1130BB02D81FC0120838BE08D8381E890E02D81E1
S1130BC0FC0120838FE690E0FC0180818D838D8180
S1130BD082608D838FE690E02D81FC0120830000EC
S1130BE026960FB6F894DEBF0FBECDBFDF91CF912E
S1130BF0089541DF189500008F929F92AF92BF92A3
S1130C00CF92DF92EF92FF920F931F93CF93DF93D4
S1130C10CDB7DEB760970FB6F894DEBF0FBECDBF79
S1130C209F838E83798768875B874A873D872C8774
S1130C300E87F88AEF868A859B8547DA9D838C83A5
S1130C408C819D81892BA9F086E290E03EDA9A831B
S1130C50898389819A81892B41F089819A812C81A8
S1130C603D81FC01308F278B06C08C819D8180DA09
S1130C7002C01A82198289819A81892BF9F08A85A6
S1130C809B85CC01A0E0B0E009811A814F85588989
S1130C902C853D8568857985EE81FF81812C912C99
S1130CA058016A01EE8489019C01AD01CF011CD079
S1130CB089819A81E1D081E08B8302C08FEF8B839D
S1130CC08B8160960FB6F894DEBF0FBECDBFDF9167
S1130CD0CF911F910F91FF90EF90DF90CF90BF9035
S1130CE0AF909F908F9008958F929F92AF92BF92F2
S1130CF0CF92DF92EF920F931F93CF93DF93CDB7F1
S1130D00DEB764970FB6F894DEBF0FBECDBF9D83E8
S1130D108C837F836E83288739874A875B871D8707
S1130D200C87EE86D88ACF86BA8AA98A9C8A8B8A4F
S1130D3089899A89FC012789308D8885998501974D
S1130D40820F931F9B838A838E819F81892B69F1F4
S1130D50198221C08981882F90E02981222F30E0D7
S1130D604E815F81240F351FF901408129893A8919
S1130D70820F931F4996FC0140838981882F90E05C
S1130D802E813F81820F931FFC018081882339F0DB
S1130D9089818F5F898389818830E0F201C00000F6
S1130DA089899A89FC0110A204C089899A89FC0165
S1130DB0118E8E85843010F083E08E8789899A891C
S1130DC02E85FC01268B89899A89029614DA8989F1
S1130DD09A890C9610DA89899A8929893A89FC01B9
S1130DE0318720878E85882F90E024E030E0281B0F
S1130DF0390B89899A89FC013587248789899A89DD
S1130E0029893A89FC01338B228B89899A89FC01CF
S1130E1011A212A213A214A289899A89FC0115A213
S1130E204C855D852C813D818A819B81B901EDDBF7
S1130E309C0189899A89FC01318320838F85988953
S1130E40892B39F08F85988929893A89FC01318366
S1130E502083000064960FB6F894DEBF0FBECDBFAA
S1130E60DF91CF911F910F91EF90DF90CF90BF90C2
S1130E70AF909F908F900895CF93DF9300D0CDB71C
S1130E80DEB79A8389830FB6F8940F928091400756
S1130E908F5F809340078091F1069091F206892B31
S1130EA061F489819A819093F2068093F10680918E
S1130EB040078130C1F4B7D216C08091440788231B
S1130EC091F48091F1069091F206FC0126898981C2
S1130ED09A81FC018689821730F089819A819093E6
S1130EE0F2068093F106809148078F5F809348074C
S1130EF089819A81FC01968980914307891730F48E
S1130F0089819A81FC0186898093430789819A812A
S1130F10AC014E5F5F4F89819A81FC018689282F3D
S1130F2030E0C901880F991F880F991F880F991FF6
S1130F30820F931F8D50994FBA016FD90F900FBE36
S1130F4080914407882369F08091F1069091F2061C
S1130F50FC01268989819A81FC018689281708F475
S1130F6031DD00000F900F90DF91CF910895CF9362
S1130F70DF9300D01F92CDB7DEB79B838A8319829B
S1130F808A819B81892B39F044D08A819B8160E0DE
S1130F90FFD24CD089838981882309F413DD0000B2
S1130FA00F900F900F90DF91CF910895EF92FF92E1
S1130FB00F93CF93DF931F92CDB7DEB70F2EFBE4D1
S1130FC0EF2EF7E0FF2EF02D00E020E030E045E5C5
S1130FD050E06BE071E085E09AE00EDE8983898160
S1130FE0813079F4F8948FEF9FEF90934A078093C0
S1130FF0490781E080934407109242071092410709
S1131000ADDC00000F90DF91CF910F91FF90EF9036
S11310100895CF93DF93CDB7DEB780914D078F5FEF
S113102080934D070000DF91CF910895CF93DF9314
S113103000D000D0CDB7DEB71A8219821B820FB65A
S1131040F8940F9280914D07815080934D078091C1
S11310504D07882309F071C080914007882309F463
S11310606CC046C08091320790913307FC018681A1
S113107097819A83898389819A810C9695D98981EC
S11310809A81029691D989819A81FC0196898091ED
S11310904307891730F489819A81FC0186898093FA
S11310A0430789819A81AC014E5F5F4F89819A81A0
S11310B0FC018689282F30E0C901880F991F880F09
S11310C0991F880F991F820F931F8D50994FBA0152
S11310D0A4D889819A81FC0126898091F106909196
S11310E0F206FC018689281718F081E080934607F0
S11310F080912D07882309F0B5CF89819A81892BA6
S113110009F017D2809145078C838C81882371F074
S11311101ED0882319F081E0809346078C8181508A
S11311208C838C818823A1F7109245078091460710
S1131130882319F081E08B8345DC0F900FBE8B81EF
S11311400F900F900F900F90DF91CF910895CF9350
S1131150DF93CDB7DEB729970FB6F894DEBF0FBE85
S1131160CDBF198280914D07882309F0C5C08091B5
S113117041079091420701969B838A838A819B81D0
S113118090934207809341078A819B81892BD1F4F4
S11311908091290790912A079D838C8380912B0746
S11311A090912C0790932A07809329078C819D8125
S11311B090932C0780932B07809147078F5F809330
S11311C04707B7D18091490790914A072A813B810B
S11311D02817390708F476C08091290790912A07C7
S11311E0FC018081882339F48FEF9FEF90934A07A5
S11311F08093490767C08091290790912A07FC01D1
S113120085819681FC01868197819F838E838E815F
S11312109F81FC0182819381998788872A813B8100
S1131220888599852817390738F488859985909396
S11312304A078093490746C08E819F810296B4D89D
S11312408E819F81FC0184899589892B21F08E816F
S11312509F810C96A9D88E819F81FC0196898091EB
S11312604307891730F48E819F81FC01868980931E
S113127043078E819F81AC014E5F5F4F8E819F81BA
S1131280FC018689282F30E0C901880F991F880F37
S1131290991F880F991F820F931F8D50994FBA0180
S11312A00E940D018E819F81FC0126898091F106A7
S11312B09091F206FC018689281708F48DCF81E00D
S11312C089838ACF8091F1069091F206FC01868988
S11312D0282F30E0C901880F991F880F991F880FA4
S11312E0991F820F931F8D50994FFC01808182308A
S11312F040F081E0898305C0809145078F5F80932A
S1131300450780914607882311F081E0898389810C
S113131029960FB6F894DEBF0FBECDBFDF91CF91F3
S11313200895CF93DF9300D01F92CDB7DEB780919D
S11313304D07882321F081E0809346075FC0109217
S1131340460780914307898303C08981815089833B
S11313508981282F30E0C901880F991F880F991FB0
S1131360880F991F820F931F8D50994FFC01808124
S1131370882359F38981282F30E0C901880F991FE8
S1131380880F991F880F991F820F931F8D50994FB3
S11313909B838A838A819B81FC0181819281FC01E8
S11313A0228133818A819B81FC01328321838A815A
S11313B09B81FC01218132818A819B8103962817BC
S11313C0390769F48A819B81FC0181819281FC0146
S11313D0228133818A819B81FC01328321838A812A
S11313E09B81FC0181819281FC018681978190938C
S11313F0F2068093F10689818093430700000F90E1
S11314000F900F90DF91CF910895CF93DF9300D089
S1131410CDB7DEB79A83898344D08091F3068230B6
S1131420D8F3D0DAF9CFCF93DF931F92CDB7DEB7DD
S1131430198213C08981282F30E0C901880F991FB0
S1131440880F991F880F991F820F931F8D50994FF2
S11314500E94C50089818F5F89838981843050F31C
S113146087E197E00E94C50080E297E00E94C500F2
S11314708DE297E00E94C50086E397E00E94C500D4
S113148087E197E090932A078093290780E297E009
S113149090932C0780932B0700000F90DF91CF913E
S11314A00895CF93DF9300D0CDB7DEB720C00FB639
S11314B0F8940F9280913B0790913C07FC01868140
S11314C097819A83898389819A8102960E94D401A3
S11314D08091400781508093400780913F0781505D
S11314E080933F070F900FBE89819A810AD0809123
S11314F03F078823E1F600000F900F90DF91CF9112
S11315000895CF93DF9300D0CDB7DEB79A83898354
S113151089819A81FC018789908D0E94B800898114
S11315209A810E94B80000000F900F90DF91CF9134
S11315300895CF93DF9300D0CDB7DEB7809129070C
S113154090912A07FC018081882339F48FEF9FEF63
S113155090934A078093490715C080912907909179
S11315602A07FC0185819681FC01868197819A83F3
S1131570898389819A81FC018281938190934A07AE
S11315808093490700000F900F90DF91CF91089549
S1131590CF93DF93CDB7DEB727970FB6F894DEBFAE
S11315A00FBECDBF9E838D836F8380914107909141
S11315B042079A8389838091F1069091F2060296FC
S11315C00E94D40129813A818D819E81820F931FCB
S11315D09C838B838091F1069091F2062B813C8150
S11315E0FC01338322832B813C8189819A812817D2
S11315F0390778F48091F1069091F2069C012E5FF0
S11316003F4F80912B0790912C07B9010E945C01F8
S11316101DC08091F1069091F2069C012E5F3F4F10
S11316208091290790912A07B9010E945C01809159
S1131630490790914A072B813C812817390730F4D8
S11316408B819C8190934A078093490700002796D9
S11316500FB6F894DEBF0FBECDBFDF91CF910895D2
S1071660F894FFCF28
S11316644C65645365635461736B0049444C450091
S9030000FC
