:1000000045C0000061C000005FC000005DC000008E
:100010005BC0000059C0000057C0000055C0000080
:1000200053C0000051C000004FC000004DC0000090
:100030004BC000008BC6000047C0000045C0000058
:1000400043C0000041C000003FC000003DC00000B0
:100050003BC0000039C0000037C0000035C00000C0
:1000600033C0000031C000002FC000002DC00000D0
:100070002BC0000029C0000027C0000025C00000E0
:1000800023C0000021C000001FC0000011241FBEBB
:10009000CFEFD0E4DEBFCDBF11E0A0E0B1E0E2ECF5
:1000A000F7E100E00BBF02C007900D92AA32B10742
:1000B000D9F727E0AAE2B1E001C01D92AD36B20740
:1000C000E1F732D30C94DF0B9BCFCF93DF9300D0BB
:1000D00000D0CDB7DEB79C838B831A8219820E9431
:1000E000B6088091080790910907892B31F48BE2BB
:1000F00091E09093090780930807209106073091BB
:1001000007078B819C81820F931F8B3D954038F5AB
:1001100020910607309107078B819C81280F391F9A
:10012000809106079091070782179307C0F42091EA
:100130000807309109078091060790910707820F01
:10014000931F9A83898320910607309107078B813B
:100150009C81820F931F90930707809306070E944C
:10016000C30889819A810F900F900F900F90DF91B3
:10017000CF910895CF93DF9300D0CDB7DEB79A83A8
:10018000898300000F900F90DF91CF910895CF9356
:10019000DF9300D0CDB7DEB79A83898389819A81B6
:1001A0009C012D5F3F4F89819A81FC01328321831D
:1001B00089819A812FEF3FEFFC013483238389816A
:1001C0009A819C012D5F3F4F89819A81FC01368382
:1001D000258389819A819C012D5F3F4F89819A8176
:1001E000FC013087278389819A81FC0110820000FD
:1001F0000F900F90DF91CF910895CF93DF9300D0B0
:10020000CDB7DEB79A83898389819A81FC011186F3
:10021000108600000F900F90DF91CF910895CF933B
:10022000DF9300D000D000D0CDB7DEB79C838B83A6
:100230007E836D838B819C81FC01818192819A8375
:1002400089838D819E8129813A81FC0133832283B8
:1002500089819A81FC01248135818D819E81FC01F7
:100260003583248389819A81FC01848195812D8144
:100270003E81FC013383228389819A812D813E81D5
:10028000FC01358324838D819E812B813C81FC017F
:10029000318720878B819C81FC01808121E0280FA0
:1002A0008B819C81FC012083000026960FB6F89478
:1002B000DEBF0FBECDBFDF91CF910895CF93DF9307
:1002C000CDB7DEB728970FB6F894DEBF0FBECDBF0F
:1002D0009E838D8378876F838F819885FC018081D1
:1002E00091819C838B838B819C81019641F48D81CC
:1002F0009E81FC01878190859A8389831AC08D81B4
:100300009E8103969A83898307C089819A81FC0123
:10031000828193819A83898389819A81FC01828178
:100320009381FC01208131818B819C81821793070D
:1003300060F789819A81FC01228133818F819885C0
:10034000FC01338322838F819885FC018281938114
:100350002F813885FC01358324838F8198852981FD
:100360003A81FC013583248389819A812F813885E4
:10037000FC01338322838F8198852D813E81FC018E
:10038000318720878D819E81FC01808121E0280FAB
:100390008D819E81FC012083000028960FB6F89481
:1003A000DEBF0FBECDBFDF91CF910895CF93DF9316
:1003B00000D000D0CDB7DEB79C838B838B819C812E
:1003C000FC01808591859A8389838B819C81FC01C6
:1003D000828193812B813C81F90124813581FC014B
:1003E000358324838B819C81FC01848195812B81C1
:1003F0003C81F90122813381FC013383228389818D
:100400009A81FC01218132818B819C8128173907D7
:1004100051F48B819C81FC012481358189819A81F1
:10042000FC01328321838B819C81FC011186108623
:1004300089819A81FC0180812FEF280F89819A811F
:10044000FC01208389819A81FC0180810F900F90AB
:100450000F900F90DF91CF910895CF93DF93CDB799
:10046000DEB7109268070000DF91CF910895CF9317
:10047000DF93CDB7DEB710926C070000DF91CF910C
:100480000895CF93DF93CDB7DEB710926A070000CF
:10049000DF91CF910895CF93DF93CDB7DEB78091F1
:1004A0006807882F90E0009719F0019781F01FC02E
:1004B000109267078BE290E03091670720916907FF
:1004C000322B20916B07232BFC0120831FC081E07E
:1004D000809367078BE290E030916707209169076E
:1004E000322B20916B07232BFC0120830FC010922D
:1004F00067078BE290E03091670720916907322B04
:1005000020916B07232BFC0120830000809168075A
:10051000882F90E0009719F0019729F007C081E03B
:100520008093680706C01092680703C0109268079E
:1005300000000000DF91CF910895CF93DF93CDB7F6
:10054000DEB780916C07882F90E0009719F0019733
:1005500081F01FC0109269078BE290E0309169072B
:1005600020916707322B20916B07232BFC012083FE
:100570001FC084E0809369078BE290E030916907A7
:1005800020916707322B20916B07232BFC012083DE
:100590000FC0109269078BE290E0309169072091BB
:1005A0006707322B20916B07232BFC01208300006F
:1005B00080916C07882F90E0009719F0019729F03F
:1005C00007C081E080936C0706C010926C0703C0DF
:1005D00010926C0700000000DF91CF910895CF9337
:1005E000DF93CDB7DEB780916A07882F90E0009740
:1005F00019F0019781F01FC010926B078BE290E019
:1006000030916B0720916907322B20916707232BCC
:10061000FC0120831FC080E180936B078BE290E098
:1006200030916B0720916907322B20916707232BAC
:10063000FC0120830FC010926B078BE290E0309199
:100640006B0720916907322B20916707232BFC0150
:100650002083000080916A07882F90E0009719F0AE
:10066000019729F007C081E080936A0706C01092C5
:100670006A0703C010926A0700000000DF91CF9163
:100680000895CF93DF93CDB7DEB7E7DE04DF84EFC5
:1006900091E01AD5FBCFCF93DF93CDB7DEB7E7DE7E
:1006A0004CDF88EE93E010D5FBCFCF93DF93CDB72F
:1006B000DEB7E7DE94DF84EC99E006D5FBCFEF925E
:1006C000FF920F93CF93DF931F92CDB7DEB789834D
:1006D000E12CF12C098120E030E045E550E060E0BC
:1006E00071E081E493E035D3E12CF12C098120E025
:1006F00030E045E550E06BE071E08BE493E029D316
:10070000E12CF12C098120E030E045E550E068E182
:1007100071E085E593E01DD300000F90DF91CF914C
:100720000F91FF90EF900895CF93DF93CDB7DEB791
:1007300081E290E0FC01108282E290E02FEFFC0168
:1007400020838AE290E02FEFFC0120838BE290E08F
:10075000FC01108281E0B3DFD6D480E090E0DF912D
:10076000CF910895CF93DF93CDB7DEB728970FB61B
:10077000F894DEBF0FBECDBF9C838B837E836D83D9
:1007800058874F838B819C8121E1FC0120838B81E1
:100790009C8101979C838B838B819C8122E2FC014D
:1007A00020838B819C8101979C838B838B819C818F
:1007B00023E3FC0120838B819C8101979C838B83A5
:1007C0008D819E819A83898329818B819C81FC0103
:1007D00020838B819C8101979C838B8389819A8163
:1007E000892F99279A83898329818B819C81FC0198
:1007F00020838B819C8101979C838B838B819C813F
:10080000FC0110828B819C8101979C838B838B815F
:100810009C8120E8FC0120838B819C8101979C8333
:100820008B838B819C81FC0110828B819C81019741
:100830009C838B838B819C8122E0FC0120838B81B4
:100840009C8101979C838B838B819C8123E0FC019D
:1008500020838B819C8101979C838B838B819C81DE
:1008600024E0FC0120838B819C8101979C838B83F6
:100870008B819C8125E0FC0120838B819C810197E9
:100880009C838B838B819C8126E0FC0120838B8160
:100890009C8101979C838B838B819C8127E0FC0149
:1008A00020838B819C8101979C838B838B819C818E
:1008B00028E0FC0120838B819C8101979C838B83A2
:1008C0008B819C8129E0FC0120838B819C81019795
:1008D0009C838B838B819C8120E1FC0120838B8115
:1008E0009C8101979C838B838B819C8121E1FC01FE
:1008F00020838B819C8101979C838B838B819C813E
:1009000022E1FC0120838B819C8101979C838B8356
:100910008B819C8123E1FC0120838B819C81019749
:100920009C838B838B819C8124E1FC0120838B81C0
:100930009C8101979C838B838B819C8125E1FC01A9
:1009400020838B819C8101979C838B838B819C81ED
:1009500026E1FC0120838B819C8101979C838B8302
:100960008B819C8127E1FC0120838B819C810197F5
:100970009C838B838B819C8128E1FC0120838B816C
:100980009C8101979C838B838B819C8129E1FC0155
:1009900020838B819C8101979C838B838B819C819D
:1009A00020E2FC0120838B819C8101979C838B83B7
:1009B0008B819C8121E2FC0120838B819C810197AA
:1009C0009C838B838B819C8122E2FC0120838B8121
:1009D0009C8101979C838B838B819C8123E2FC010A
:1009E00020838B819C8101979C838B838F81988549
:1009F0009A83898329818B819C81FC0120838B814F
:100A00009C8101979C838B8389819A81892F992767
:100A10009A83898329818B819C81FC0120838B812E
:100A20009C8101979C838B838B819C8126E2FC01B6
:100A300020838B819C8101979C838B838B819C81FC
:100A400027E2FC0120838B819C8101979C838B830F
:100A50008B819C8128E2FC0120838B819C81019702
:100A60009C838B838B819C8129E2FC0120838B8179
:100A70009C8101979C838B838B819C8120E3FC016B
:100A800020838B819C8101979C838B838B819C81AC
:100A900021E3FC0120838B819C8101979C838B83C4
:100AA0008B819C8128960FB6F894DEBF0FBECDBF18
:100AB000DF91CF910895CF93DF93CDB7DEB7E4D028
:100AC000A0910A07B0910B07CD91CDBFDD91DEBF9C
:100AD000FF91EF91DF91CF91BF91AF919F918F9156
:100AE0007F916F915F914F913F912F911F910F9146
:100AF000FF90EF90DF90CF90BF90AF909F908F903E
:100B00007F906F905F904F903F902F901F900F902D
:100B10000FBE0F90089581E0DF91CF9108950F925D
:100B20000FB6F8940F921F9211242F923F924F927A
:100B30005F926F927F928F929F92AF92BF92CF926D
:100B4000DF92EF92FF920F931F932F933F934F9358
:100B50005F936F937F938F939F93AF93BF93CF9345
:100B6000DF93EF93FF93A0910A07B0910B070DB6A7
:100B70000D920EB60D9284D4A0910A07B0910B0786
:100B8000CD91CDBFDD91DEBFFF91EF91DF91CF9190
:100B9000BF91AF919F918F917F916F915F914F9195
:100BA0003F912F911F910F91FF90EF90DF90CF9089
:100BB000BF90AF909F908F907F906F905F904F907D
:100BC0003F902F901F900F900FBE0F900895000040
:100BD0000F920FB6F8940F921F9211242F923F920A
:100BE0004F925F926F927F928F929F92AF92BF923D
:100BF000CF92DF92EF92FF920F931F932F933F9329
:100C00004F935F936F937F938F939F93AF93BF9314
:100C1000CF93DF93EF93FF93A0910A07B0910B0757
:100C20000DB60D920EB60D9240D3882309F028D44C
:100C3000A0910A07B0910B07CD91CDBFDD91DEBF2A
:100C4000FF91EF91DF91CF91BF91AF919F918F91E4
:100C50007F916F915F914F913F912F911F910F91D4
:100C6000FF90EF90DF90CF90BF90AF909F908F90CC
:100C70007F906F905F904F903F902F901F900F90BC
:100C80000FBE0F9008950000CF93DF9300D000D0E7
:100C900000D0CDB7DEB780E49FE1A0E0B0E089836B
:100CA0009A83AB83BC8389819A81AB81BC81689430
:100CB00015F8B695A795979587951694D1F78983DA
:100CC0009A83AB83BC8389819A81AB81BC81019774
:100CD000A109B10989839A83AB83BC8389818D8300
:100CE00089819A81AB81BC81892F9A2FAB2FBB2739
:100CF00089839A83AB83BC8389818E8389E890E062
:100D00002E81FC01208388E890E02D81FC01208366
:100D10008BE08D8381E890E02D81FC0120838FE6BC
:100D200090E0FC0180818D838D8182608D838FE6D0
:100D300090E02D81FC012083000026960FB6F894E8
:100D4000DEBF0FBECDBFDF91CF91089541DF189573
:100D500000008F929F92AF92BF92CF92DF92EF925C
:100D6000FF920F931F93CF93DF93CDB7DEB76097BA
:100D70000FB6F894DEBF0FBECDBF9F838E837987F9
:100D800068875B874A873D872C870E87F88AEF86BE
:100D90008A859B859AD99D838C838C819D81892BA3
:100DA000A9F086E290E091D99A83898389819A811A
:100DB000892B41F089819A812C813D81FC01308F02
:100DC000278B06C08C819D81D5D902C01A821982D9
:100DD00089819A81892BF9F08A859B85CC01A0E0D5
:100DE000B0E009811A814F8558892C853D85688539
:100DF0007985EE81FF81812C912C58016A01EE8466
:100E000089019C01AD01CF011CD089819A81E1D07B
:100E100081E08B8302C08FEF8B838B8160960FB64E
:100E2000F894DEBF0FBECDBFDF91CF911F910F9120
:100E3000FF90EF90DF90CF90BF90AF909F908F90FA
:100E400008958F929F92AF92BF92CF92DF92EF92CE
:100E50000F931F93CF93DF93CDB7DEB764970FB691
:100E6000F894DEBF0FBECDBF9D838C837F836E83DE
:100E7000288739874A875B871D870C87EE86D88A43
:100E8000CF86BA8AA98A9C8A8B8A89899A89FC0129
:100E90002789308D888599850197820F931F9B83C1
:100EA0008A838E819F81892B69F1198221C0898172
:100EB000882F90E02981222F30E04E815F81240F1E
:100EC000351FF901408129893A89820F931F49967C
:100ED000FC0140838981882F90E02E813F81820F21
:100EE000931FFC018081882339F089818F5F89837A
:100EF00089818830E0F201C0000089899A89FC016B
:100F000010A204C089899A89FC01118E8E858430D3
:100F100010F083E08E8789899A892E85FC01268BC3
:100F200089899A89029669D989899A890C9665D99D
:100F300089899A8929893A89FC01318720878E8598
:100F4000882F90E024E030E0281B390B89899A89AA
:100F5000FC013587248789899A8929893A89FC0186
:100F6000338B228B89899A89FC0111A212A213A2C8
:100F700014A289899A89FC0115A24C855D852C8172
:100F80003D818A819B81B901EDDB9C0189899A8928
:100F9000FC01318320838F859889892B39F08F85D7
:100FA000988929893A89FC0131832083000064965D
:100FB0000FB6F894DEBF0FBECDBFDF91CF911F916A
:100FC0000F91EF90DF90CF90BF90AF909F908F9058
:100FD0000895CF93DF9300D0CDB7DEB79A8389838E
:100FE0000FB6F8940F92809159078F5F809359073D
:100FF00080910A0790910B07892B61F489819A816E
:1010000090930B0780930A07809159078130C1F4B0
:10101000B9D216C080915D07882391F480910A07A8
:1010200090910B07FC01268989819A81FC018689B0
:10103000821730F089819A8190930B0780930A0779
:10104000809161078F5F8093610789819A81FC019C
:10105000968980915C07891730F489819A81FC0117
:10106000868980935C0789819A81AC014E5F5F4FCE
:1010700089819A81FC018689282F30E0C901880F77
:10108000991F880F991F880F991F820F931F845FE4
:10109000984FBA01C4D80F900FBE80915D07882386
:1010A00069F080910A0790910B07FC0126898981DC
:1010B0009A81FC018689281708F431DD00000F9021
:1010C0000F90DF91CF910895CF93DF9300D01F92BF
:1010D000CDB7DEB79B838A8319828A819B81892B56
:1010E00039F044D08A819B8160E001D34CD0898360
:1010F0008981882309F413DD00000F900F900F9071
:10110000DF91CF910895EF92FF920F93CF93DF93EA
:101110001F92CDB7DEB70F2EF4E6EF2EF7E0FF2ECD
:10112000F02D00E020E030E045E550E065E271E0C0
:1011300084EB9AE00EDE89838981813079F4F8941A
:101140008FEF9FEF909363078093620781E0809316
:101150005D0710925B0710925A07ADDC00000F90FC
:10116000DF91CF910F91FF90EF900895CF93DF9390
:10117000CDB7DEB7809166078F5F8093660700006A
:10118000DF91CF910895CF93DF9300D000D0CDB7FA
:10119000DEB71A8219821B820FB6F8940F928091E3
:1011A000660781508093660780916607882309F05F
:1011B00072C080915907882309F46DC047C080919F
:1011C0004B0790914C07FC01868197819A83898314
:1011D00089819A810C96EAD889819A810296E6D80B
:1011E00089819A81FC01968980915C07891730F486
:1011F00089819A81FC01868980935C0789819A8123
:10120000AC014E5F5F4F89819A81FC018689282F4E
:1012100030E0C901880F991F880F991F880F991F07
:10122000820F931F845F984FBA010E940F0189813A
:101230009A81FC01268980910A0790910B07FC0195
:101240008689281718F081E080935F078091460710
:10125000882309F0B4CF89819A81892B09F018D2AB
:1012600080915E078C838C81882371F01ED0882347
:1012700019F081E080935F078C8181508C838C8191
:101280008823A1F710925E0780915F07882319F0E9
:1012900081E08B8344DC0F900FBE8B810F900F9009
:1012A0000F900F90DF91CF910895CF93DF93CDB73B
:1012B000DEB729970FB6F894DEBF0FBECDBF1982F7
:1012C00080916607882309F0C6C080915A079091E3
:1012D0005B0701969B838A838A819B8190935B073E
:1012E00080935A078A819B81892BD1F48091420790
:1012F000909143079D838C8380914407909145078B
:1013000090934307809342078C819D81909345077A
:1013100080934407809160078F5F80936007B8D106
:1013200080916207909163072A813B8128173907D2
:1013300008F477C08091420790914307FC018081B7
:10134000882339F48FEF9FEF9093630780936207B0
:1013500068C08091420790914307FC018581968186
:10136000FC01868197819F838E838E819F81FC0102
:1013700082819381998788872A813B818885998595
:101380002817390738F488859985909363078093E7
:10139000620747C08E819F81029608D88E819F8107
:1013A000FC0184899589892B29F08E819F810C9677
:1013B0000E94D6018E819F81FC01968980915C07F5
:1013C000891730F48E819F81FC01868980935C07A8
:1013D0008E819F81AC014E5F5F4F8E819F81FC01AA
:1013E0008689282F30E0C901880F991F880F991F1F
:1013F000880F991F820F931F845F984FBA010E9434
:101400000F018E819F81FC01268980910A079091AE
:101410000B07FC018689281708F48CCF81E08983AB
:1014200089CF80910A0790910B07FC018689282FAC
:1014300030E0C901880F991F880F991F880F991FE5
:10144000820F931F845F984FFC018081823040F0AF
:1014500081E0898305C080915E078F5F80935E077E
:1014600080915F07882311F081E089838981299623
:101470000FB6F894DEBF0FBECDBFDF91CF910895B8
:10148000CF93DF9300D01F92CDB7DEB78091660770
:10149000882321F081E080935F075FC010925F078F
:1014A00080915C07898303C0898181508983898108
:1014B000282F30E0C901880F991F880F991F880FC6
:1014C000991F820F931F845F984FFC0180818823AE
:1014D00059F38981282F30E0C901880F991F880F9F
:1014E000991F880F991F820F931F845F984F9B83CA
:1014F0008A838A819B81FC0181819281FC01228106
:1015000033818A819B81FC01328321838A819B8183
:10151000FC01218132818A819B810396281739073A
:1015200069F48A819B81FC0181819281FC01228185
:1015300033818A819B81FC01328321838A819B8153
:10154000FC0181819281FC018681978190930B0738
:1015500080930A07898180935C0700000F900F90A9
:101560000F90DF91CF910895CF93DF9300D0CDB747
:10157000DEB79A83898344D080910C078230D8F3F8
:10158000CEDAF9CFCF93DF931F92CDB7DEB71982B2
:1015900013C08981282F30E0C901880F991F880F57
:1015A000991F880F991F820F931F845F984F0E9485
:1015B000C70089818F5F89838981843050F380E3FC
:1015C00097E00E94C70089E397E00E94C70086E485
:1015D00097E00E94C7008FE497E00E94C70080E375
:1015E00097E0909343078093420789E397E09093B5
:1015F00045078093440700000F90DF91CF91089535
:10160000CF93DF9300D0CDB7DEB720C00FB6F894EC
:101610000F928091540790915507FC018681978124
:101620009A83898389819A8102960E94D60180914A
:1016300059078150809359078091580781508093B2
:1016400058070F900FBE89819A810AD08091580760
:101650008823E1F600000F900F90DF91CF9108955D
:10166000CF93DF9300D0CDB7DEB79A83898389818A
:101670009A81FC018789908D0E94BA0089819A81A4
:101680000E94BA0000000F900F90DF91CF91089553
:10169000CF93DF9300D0CDB7DEB780914207909112
:1016A0004307FC018081882339F48FEF9FEF9093EB
:1016B00063078093620715C08091420790914307AA
:1016C000FC0185819681FC01868197819A838983BB
:1016D00089819A81FC018281938190936307809331
:1016E000620700000F900F90DF91CF910895CF9384
:1016F000DF93CDB7DEB727970FB6F894DEBF0FBEE6
:10170000CDBF9E838D836F8380915A0790915B0735
:101710009A83898380910A0790910B0702960E9411
:10172000D60129813A818D819E81820F931F9C83EE
:101730008B8380910A0790910B072B813C81FC01E0
:10174000338322832B813C8189819A812817390731
:1017500078F480910A0790910B079C012E5F3F4F10
:101760008091440790914507B9010E945E011DC018
:1017700080910A0790910B079C012E5F3F4F80914B
:10178000420790914307B9010E945E018091620770
:10179000909163072B813C812817390730F48B81A6
:1017A0009C819093630780936207000027960FB691
:1017B000F894DEBF0FBECDBFDF91CF910895F894AE
:0217C000FFCF59
:1017C2004C65645365635461736B004C6564536587
:1017D200635461736B5F31004C656453656354619C
:0A17E200736B5F320049444C450070
:00000001FF
