:100000004DC0000068C0000066C0000064C0000071
:1000100062C0000060C000005EC000005CC0000064
:100020005AC0000058C0000056C0000054C0000074
:1000300052C0000086C000004EC000004CC000004E
:100040004AC0000048C0000046C0000044C0000094
:1000500042C0000040C000003EC000003CC00000A4
:100060003AC0000038C0000036C0000034C00000B4
:1000700032C0000030C000002EC000002CC00000C4
:100080002AC0000028C0000026C0000004010801AA
:100090003E0174019F01C701EF01170211241FBE29
:1000A000CFEFD0E4DEBFCDBF11E0A0E0B1E0EAEADF
:1000B000F4E000E00BBF02C007900D92AA30B10738
:1000C000D9F721E0AAE0B1E001C01D92A131B20749
:1000D000E1F7CDD1E8C194CF609306017093070199
:1000E000809308019093090160930A0170930B01BA
:1000F00080930C0190930D0108958BE08093810013
:100100008DE790E0909389008093880082E080934F
:100110006F001092850010928400809106019091EA
:100120000701A0910801B091090180930A01909301
:100130000B01A0930C01B0930D018FB780688FBFA6
:1001400008951F920F920FB60F9211248F939F93D1
:10015000AF93BF9380910A0190910B01A0910C0184
:10016000B0910D010197A109B10980930A01909303
:100170000B01A0930C01B0930D01892B8A2B8B2BC3
:1001800099F481E080930E0180910601909107011E
:10019000A0910801B091090180930A0190930B018D
:1001A000A0930C01B0930D01BF91AF919F918F91DE
:1001B0000F900FBE0F901F90189520E030E058E090
:1001C000E82FF0E058B948B1BF01022E02C0759582
:1001D00067950A94E2F7962F9170942B98B9429AFA
:1001E0002F5F3F4F2830310569F7419A18B80895BD
:1001F000E09110018E2F90E08830910508F023C126
:10020000FC01EA5BFF4F46C181E0809310011EC1F3
:1002100080B190E08095909583709927019751F077
:1002200080B180B190E08095909583709927029776
:1002300029F40CC082E0809310010CC180B190E0E1
:10024000809590958C709927049721F483E0809392
:10025000100104C180B190E080959095837099273A
:10026000039741F080B184E08093100180910301F5
:10027000A4CF089587E080931001F4C080B190E08E
:100280008095909583709927019751F080B180B146
:1002900090E08095909583709927029729F40CC07F
:1002A00083E080931001DAC080B190E08095909552
:1002B0008C709927049721F481E080931001C6C0C7
:1002C00080B190E08095909583709927039741F0D5
:1002D00080B185E080931001809101016ECF089577
:1002E00087E080931001BEC080B190E0809590952A
:1002F00083709927019721F481E080931001A6C0B3
:1003000080B190E08095909583709927029721F4B1
:1003100082E0809310019EC080B190E0809590951E
:1003200083709927039721F487E0809310019AC086
:1003300086E080931001809105013FCF089580B140
:1003400090E08095909583709927019721F482E041
:10035000809310017FC080B190E08095909583706C
:100360009927029721F483E08093100177C080B130
:1003700090E08095909583709927039721F487E00A
:10038000809310016FC081E0809310015FC080B145
:1003900090E08095909583709927019721F483E0F0
:1003A000809310015BC080B190E080959095837040
:1003B0009927029721F481E08093100147C080B112
:1003C00090E08095909583709927039721F487E0BA
:1003D0008093100147C082E0809310013BC080B140
:1003E00090E08095909583709927019721F481E0A2
:1003F000809310012BC080B190E080959095837020
:100400009927029721F482E08093100123C080B1E4
:1004100090E08095909583709927039721F487E069
:10042000809310011FC083E08093100117C080B13A
:1004300090E08095909583709927039799F481E0D7
:100440008093100103C081E080931001809102012C
:10045000B4CE089580910001B0CE0895809104013A
:10046000ACCE089510920F0180E0A7CE08958FEFD3
:1004700087B918B811B882B940DE6CE271E080E04B
:1004800090E02ADEB5DE80910E018823E1F3109220
:100490000E01F8CFEE0FFF1F0024001C0BBE0790CB
:0A04A000F691E02D0994F894FFCFC7
:0A04AA00661855AA33CC01000000CB
:00000001FF
