S0150000457265646F3030315F4C6162312E73726563F0
S113000045C0000060C000005EC000005CC000008D
S11300105AC0000058C0000056C0000054C0000080
S113002052C0000050C000004EC000004CC0000090
S11300304AC0000014C1000046C0000044C00000D3
S113004042C0000040C000003EC000003CC00000B0
S11300503AC0000038C0000036C0000034C00000C0
S113006032C0000030C000002EC000002CC00000D0
S11300702AC0000028C0000026C0000024C00000E0
S113008022C0000020C000001EC0000011241FBEBA
S1130090CFEFD0E4DEBFCDBF11E0A0E0B1E0E6E1F8
S11300A0F5E000E00BBF02C007900D92A430B10749
S11300B0D9F721E0A4E0B1E001C01D92A732B20754
S11300C0E1F750D126C29CCF8130910519F11CF47F
S11300D00097C9F006C08230910519F1833091056B
S11300E091F08130910579F01CF4009741F0089566
S11300F08230910579F083309105C9F412C01092D1
S1130100250115B8089581E08093250185B981E022
S113011090E0089582E08093250185B982E090E023
S1130120089584E08093250185B983E090E00895E3
S113013020B12170009721F08130910549F00EC063
S113014041E030E0211101C040E0842F932F06C02C
S113015021110AC081E0809323010EC0009721F091
S11301608130910591F408C01092240180912501F9
S113017085B980E090E0089588E08093240180911F
S11301802501886085B981E090E00895CF92DF92DF
S1130190EF92FF921F93CF93DF9310921A018091F5
S11301A01C01882309F453C080E01BE0C0912101A5
S11301B0D0912201189FC00DD11D11244D815E8163
S11301C06F81788589819A81AB81BC8148175907F1
S11301D06A077B07B0F08881E985FA85082E000C50
S11301E0990B0995888380911A01E0912101F0917E
S11301F02201189FE00DF11D112415821682178229
S1130200108680911A01E0912101F0912201189F3A
S1130210E00DF11D1124C580D680E780F084409163
S113022000015091010160910201709103014C0D94
S11302305D1D6E1D7F1D45835683678370878F5FA9
S113024080931A0190911C01891708F4AFCFDF91B4
S1130250CF911F91FF90EF90DF90CF9008951F9260
S11302600F920FB60F9211240BB60F922F933F9358
S11302704F935F936F937F938F939F93AF93BF93AA
S1130280EF93FF9380911D0190911E01A0911F0196
S1130290B09120010197A109B10980931D019093A8
S11302A01E01A0931F01B0932001892B8A2B8B2B55
S11302B089F46CDF8091000190910101A091020109
S11302C0B091030180931D0190931E01A0931F011F
S11302D0B0932001FF91EF91BF91AF919F918F91C6
S11302E07F916F915F914F913F912F910F900BBE32
S11302F00F900FBE0F901F9018956093000170939C
S11303000101809302019093030160931D01709396
S11303101E0180931F019093200108958BE0809328
S113032081008DE790E0909389008093880082E0BB
S113033080936F00109285001092840080910001D8
S113034090910101A0910201B091030180931D01DC
S113035090931E01A0931F01B09320018FB7806872
S11303608FBF0895CF93DF9300D000D0CDB7DEB711
S113037011B88FEF82B984B915B80F2EF8EEEF2EAD
S1130380F02D0F2EF3E0FF2EF02D00E010E054EFDF
S113039041E030E020E004C0E62EF72E082F192FAC
S11303A0652F742F832F922F2E2D3F2D402F512FE9
S11303B08ED05E2D4F2D302F212F611571058105B3
S11303C0910551F764EF71E080E090E02E2D3F2D10
S11303D0402F512F7CD049015A0168EE73E080E030
S11303E090E02E2D3F2D402F512F71D0AFE0B1E082
S11303F0BA83A983E4E0F1E0FC83EB831C921196B9
S11304008D929D92AD92BC92149715968D929D9269
S1130410AD92BC92189784E690E01A969C938E93C2
S1130420199710822183328343835483258336832F
S11304304783508788E990E0928781876E2D7F2DCE
S1130440802F912F5ADF6ADF7E0185E0E80EF11CD0
S1130450DE0111966D01F601019111916F01D80130
S113046015964D915D916D917C91189711968D9192
S11304709D910D90BC91A02D481759076A077B07E1
S113048081F4F80180810184F285E02D082E000CAE
S1130490990B0995D8018C93F8011582168217825D
S11304A01086F80185819681A781B0850196A11DEA
S11304B0B11D85839683A783B087CE14DF0459F6D4
S11304C080911B018823E1F310921B01C1CFA1E2AB
S11304D01A2EAA1BBB1BFD010DC0AA1FBB1FEE1FBA
S11304E0FF1FA217B307E407F50720F0A21BB30B05
S11304F0E40BF50B661F771F881F991F1A9469F781
S113050060957095809590959B01AC01BD01CF01DC
S10905100895F894FFCFEA
S107051601000000DC
S9030000FC
