S0180000457265646F5F4C6162335F50617274312E7372656355
S113000045C0000060C000005EC000005CC000008D
S11300105AC0000058C0000056C0000054C0000080
S113002052C0000050C000004EC000004CC0000090
S11300304AC0000099C2000046C0000044C000004D
S113004042C0000040C000003EC000003CC00000B0
S11300503AC0000038C0000036C0000034C00000C0
S113006032C0000030C000002EC000002CC00000D0
S11300702AC0000028C0000026C0000024C00000E0
S113008022C0000020C000001EC0000011241FBEBA
S1130090CFEFD0E4DEBFCDBF11E0A0E0B1E0E4E0FB
S11300A0FDE000E00BBF02C007900D92A031B10744
S11300B0D9F721E0A0E1B1E001C01D92A934B20753
S11300C0E1F7E2D31DC69CCFCF93DF9300D000D0DD
S11300D000D0CDB7DEB79E838D831A82198213C0F8
S11300E01C821B8206C000008B819C8101969C832C
S11300F08B838B819C8187309340ACF389819A8177
S113010001969A83898329813A818D819E8128175A
S1130110390734F3000026960FB6F894DEBF0FBEFD
S1130120CDBFDF91CF910895CF93DF931F92CDB7C9
S1130130DEB7898382E290E022E230E0F901208197
S11301402E7FFC01208388E290E02981FC0120833A
S113015082E290E022E230E0F90120812260FC0199
S11301602083000082E290E022E230E0F901208165
S11301702D7FFC01208382E090E0A6DF00000F9039
S1130180DF91CF910895CF93DF93CDB7DEB784E6A7
S113019090E09ADF88E3C8DF86E0C6DF8FE0C4DF43
S11301A081E0C2DF8AE090E08FDF0000DF91CF9131
S11301B00895CF93DF931F92CDB7DEB7898382E290
S11301C090E022E230E0F90120812160FC012083EB
S11301D088E290E02981FC01208382E290E022E21F
S11301E030E0F90120812260FC012083000082E2DA
S11301F090E022E230E0F90120812D7FFC01208390
S113020081E090E061DF00000F90DF91CF910895CD
S1130210CF93DF931F92CDB7DEB789838981813174
S113022020F48981815880DF03C0898181557CDF76
S113023000000F90DF91CF910895CF93DF9300D00A
S11302401F92CDB7DEB789836A834B838B81882362
S113025071F08A81282F30E081E090E002C0880F9D
S1130260991F2A95E2F7982F8981892B0EC08A81DC
S1130270282F30E081E090E002C0880F991F2A9572
S1130280E2F7982F9095898189230F900F900F9012
S1130290DF91CF910895CF93DF9300D0CDB7DEB730
S11302A089836A838A81282F30E081E090E002C04C
S11302B0880F991F2A95E2F7982F898189230F9037
S11302C00F90DF91CF9108950F931F93CF93DF93F6
S11302D0CDB7DEB70BE210E040E064E08FEFADDFB6
S11302E0F8018083000089E290E0FC018081809520
S11302F060E0D1DF882311F081E3C1C089E290E09E
S1130300FC018081809561E0C6DF882311F084E3DD
S1130310B6C089E290E0FC018081809562E0BBDF99
S1130320882311F087E3ABC089E290E0FC0180816F
S1130330809563E0B0DF882311F08AE2A0C00BE26D
S113034010E040E065E08FEF78DFF8018083000083
S113035089E290E0FC018081809560E09CDF882345
S113036011F082E38CC089E290E0FC0180818095E9
S113037061E091DF882311F085E381C089E290E098
S1130380FC018081809562E086DF882311F088E398
S113039076C089E290E0FC018081809563E07BDF98
S11303A0882311F080E36BC00BE210E040E066E0CC
S11303B08FEF43DFF8018083000089E290E0FC01C5
S11303C08081809560E067DF882311F083E357C064
S11303D089E290E0FC018081809561E05CDF882304
S11303E011F086E34CC089E290E0FC0180818095A5
S11303F062E051DF882311F089E341C089E290E093
S1130400FC018081809563E046DF882311F083E25C
S113041036C00BE210E040E067E08FEF0EDFF8013A
S11304208083000089E290E0FC018081809560E097
S113043032DF882311F081E422C089E290E0FC01DC
S11304408081809561E027DF882311F082E417C062
S113045089E290E0FC018081809562E01CDF8823C2
S113046011F083E40CC089E290E0FC018081809566
S113047063E011DF882311F084E401C080E0DF91A0
S1130480CF911F910F910895CF93DF9300D000D0A7
S1130490CDB7DEB769837A838B839C8389819A8104
S11304A0AB81BC818093000190930101A093020170
S11304B0B09303018091000190910101A091020188
S11304C0B09103018093110190931201A093130141
S11304D0B093140100000F900F900F900F90DF91D4
S11304E0CF910895CF93DF93CDB7DEB781E890E045
S11304F02BE0FC01208388E890E02DE730E0FC014C
S1130500318320838FE690E022E0FC01208384E89D
S113051090E0FC0111821082809100019091010110
S1130520A0910201B09103018093110190931201F3
S1130530A0931301B09314018FE590E02FE530E010
S1130540F90120812068FC0120830000DF91CF9114
S11305500895CF93DF93CDB7DEB781E08093100188
S11305600000DF91CF9108951F920F9200905F00D9
S11305700F92112400905B000F922F933F934F939F
S11305805F936F937F938F939F93AF93BF93EF93F7
S1130590FF93CF93DF93CDB7DEB780911101909194
S11305A01201A0911301B09114010197A109B1099D
S11305B08093110190931201A0931301B09314013D
S11305C08091110190911201A0911301B091140135
S11305D0892B8A2B8B2B89F4BCDF809100019091AD
S11305E00101A0910201B091030180931101909344
S11305F01201A0931301B09314010000DF91CF9175
S1130600FF91EF91BF91AF919F918F917F916F91E6
S11306105F914F913F912F910F9000925B000F904B
S113062000925F000F901F901895CF93DF93CDB782
S1130630DEB784E290E020EBFC0120838CE490E0C0
S113064021E5FC01208378940000DF91CF91089587
S1130650CF93DF9300D0CDB7DEB78A838EE490E0EA
S11306602A81FC01208385E290E0FC01808140E046
S113067064E0E3DD00008DE490E0FC0180818823E8
S1130680D4F78EE490E0FC018081898385E290E0D8
S1130690FC01808141E064E0D0DD00000F900F9008
S11306A0DF91CF910895CF93DF9300D0CDB7DEB71C
S11306B09A83898309DE8093360189819A81009720
S11306C019F0019731F03FC081E090E09A8389836B
S11306D03AC080913601882F90E082349105B1F0C0
S11306E08334910524F48134910541F027C0833487
S11306F09105A1F084349105C9F020C080E1809374
S11307003C0186E085DD81E354DD18C080E28093FE
S11307103C0186E07DDD82E34CDD10C080E3809304
S11307203C0186E075DD83E344DD08C080E480930A
S11307303C0186E06DDD84E33CDD000081E090E077
S11307409A838983000089819A810F900F90DF91A9
S1130750CF910895CF93DF9300D0CDB7DEB79A83BE
S11307608983B2DD8093360189819A81009719F0DB
S1130770019731F053C081E090E09A8389834EC0A1
S113078080913601882F90E08333910511F18433F1
S1130790910534F48133910561F0C29791F039C029
S11307A08533910531F185339105DCF0C69749F124
S11307B030C081E080933D018EE02ADD81E3F9DCE5
S11307C028C082E080933D018EE022DD82E3F1DCEB
S11307D020C083E080933D018EE01ADD83E3E9DCF1
S11307E018C084E080933D018EE012DD84E3E1DCF7
S11307F010C085E080933D018EE00ADD85E3D9DCFD
S113080008C086E080933D018EE002DD86E3D1DC02
S1130810000081E090E09A838983000089819A81B5
S11308200F900F90DF91CF910895CF93DF9300D075
S1130830CDB7DEB79A83898389819A81009719F0AD
S1130840019731F01AC081E090E09A83898315C042
S113085090913C0180913D01892B80933B018091D3
S11308603C01882321F480913D01882331F080915B
S11308703B01EEDE1A821982000089819A810F9071
S11308800F90DF91CF9108950F931F93CF93DF9330
S1130890CDB7DEB7E2970FB6F894DEBF0FBECDBF7B
S11308A081E290E02FEFFC01208382E290E0FC01E2
S11308B0108284E290E02FEFFC01208385E290E037
S11308C0FC01108287E290E02FEFFC01208388E294
S11308D090E0FC0110828AE290E020EFFC0120838A
S11308E08BE290E02FE0FC0120834DDC85E0E4E026
S11308F0F1E0DE01909601900D928A95E1F783E58F
S11309008DA380E78EA384E68FA38AE388A785E777
S113091089A783E48AA78AE38BA781E38CA719823A
S113092011C089818F5F74DC8981882F90E09E01DA
S1130930205E3F4F820F931FFC0180813ADC898146
S11309408F5F89838981853060F3198211C0898121
S1130950865F5EDC8981882F90E09E012B5D3F4F8E
S1130960820F931FFC01808124DC89818F5F89833E
S11309708981843060F3198211C089818F5E48DCDB
S11309808981882F90E09E01275D3F4F820F931F3E
S1130990FC0180810EDC89818F5F898389818430A9
S11309A060F384E690E0A0E0B0E080933701909398
S11309B03801A0933901B0933A0182E390E0A0E0BA
S11309C0B0E08A839B83AC83BD8382E390E0A0E0A4
S11309D0B0E08E839F83A887B9878AE090E0A0E087
S11309E0B0E08A879B87AC87BD878A859B85AC8569
S11309F0BD858E879F87A88BB98B80913701909195
S1130A003801A0913901B0913A012E853F8548897A
S1130A105989BC01CD0152D1DA01C9018A8B9B8B62
S1130A20AC8BBD8B8A819B81AC81BD812E853F853A
S1130A3048895989BC01CD0141D1DA01C9018E8BA4
S1130A409F8BA88FB98F8E819F81A885B9852E85AC
S1130A503F8548895989BC01CD0130D1DA01C901EA
S1130A608A8F9B8FAC8FBD8F86E0E9E0F1E0DE01D9
S1130A709D9601900D928A95E1F783E090E09F8F17
S1130A808E8F109215018A899B89AC89BD898093C8
S1130A90160190931701A0931801B09319018A8944
S1130AA09B89AC89BD8980931A0190931B01A09303
S1130AB01C01B0931D0185E194E090931F01809384
S1130AC01E01109220018E899F89A88DB98D809373
S1130AD0210190932201A0932301B09324018E89D4
S1130AE09F89A88DB98D8093250190932601A093A9
S1130AF02701B093280183E593E090932A01809322
S1130B00290110922B018A8D9B8DAC8DBD8D809314
S1130B102C0190932D01A0932E01B0932F018A8D67
S1130B209B8DAC8DBD8D8093300190933101A0934A
S1130B303201B09333018AEA93E0909335018093B4
S1130B40340173DD8E859F85A889B989BC01CD01E7
S1130B509BDCC8DC1982A1C08981882F90E0880FB2
S1130B60991F9E012F5F3F4F820F931F8C96FC01AC
S1130B7080819181FC01258136814781508589815D
S1130B80882F90E0880F991FBE016F5F7F4F860FFB
S1130B90971F8C96FC0180819181FC018181928157
S1130BA0A381B481281739074A075B0709F049C0B4
S1130BB08981882F90E0880F991F9E012F5F3F4FF6
S1130BC0820F931F8C96FC01008111818981882FEB
S1130BD090E0880F991F9E012F5F3F4F820F931F54
S1130BE08C96FC0180819181FC012185328589816B
S1130BF0882F90E0880F991FAE014F5F5F4F840FDD
S1130C00951F8C96FC0180819181FC018081082EC6
S1130C10000C990BF9010995F80180838981882FCB
S1130C2090E0880F991F9E012F5F3F4F820F931F03
S1130C308C96FC0180819181FC01158216821782B9
S1130C4010868981882F90E0880F991F9E012F5F5D
S1130C503F4F820F931F8C96FC0120813181898143
S1130C60882F90E0880F991FAE014F5F5F4F840F6C
S1130C70951F8C96FC0180819181FC018581968170
S1130C80A781B0850196A11DB11DF90185839683C5
S1130C90A783B08789818F5F89838981282F30E07A
S1130CA08E8D9F8D2817390708F456CF0000809148
S1130CB010018823E1F3109210014CCFA1E21A2E07
S1130CC0AA1BBB1BFD010DC0AA1FBB1FEE1FFF1FEC
S1130CD0A217B307E407F50720F0A21BB30BE40B3C
S1130CE0F50B661F771F881F991F1A9469F7609583
S1130CF07095809590959B01AC01BD01CF0108953D
S1070D00F894FFCF91
S1130D04010000005074726E3A150120012B010099
S9030000FC
