S01B0000457265646F3030315F4C6162355F50617274312E73726563BF
S113000045C0000060C000005EC000005CC000008D
S11300105AC0000058C0000056C0000054C0000080
S113002052C0000050C000004EC000004CC0000090
S11300304AC00000B9C0000046C0000044C000002F
S113004042C0000040C000003EC000003CC00000B0
S11300503AC0000038C0000036C0000034C00000C0
S113006032C0000030C000002EC000002CC00000D0
S11300702AC0000028C0000026C0000024C00000E0
S113008022C0000020C000001EC0000011241FBEBA
S1130090CFEFD0E4DEBFCDBF11E0A0E0B1E0E2E6F7
S11300A0F4E000E00BBF02C007900D92A430B1074A
S11300B0D9F721E0A4E0B1E001C01D92AB30B20752
S11300C0E1F7A8D1CCC19CCFCF93DF9300D000D06F
S11300D0CDB7DEB769837A838B839C8389819A81C8
S11300E0AB81BC818093000190930101A093020134
S11300F0B09303018091000190910101A09102014C
S1130100B09103018093050190930601A093070128
S1130110B093080100000F900F900F900F90DF91A3
S1130120CF910895CF93DF93CDB7DEB781E890E008
S11301302BE0FC01208388E890E02DE730E0FC010F
S1130140318320838FE690E022E0FC01208384E861
S113015090E0FC01118210828091000190910101D4
S1130160A0910201B09103018093050190930601CF
S1130170A0930701B09308018FE590E02FE530E0EC
S1130180F90120812068FC0120830000DF91CF91D8
S11301900895CF93DF93CDB7DEB781E08093040158
S11301A00000DF91CF9108951F920F9200905F009D
S11301B00F92112400905B000F922F933F934F9363
S11301C05F936F937F938F939F93AF93BF93EF93BB
S11301D0FF93CF93DF93CDB7DEB780910501909164
S11301E00601A0910701B09108010197A109B10985
S11301F08093050190930601A0930701B093080131
S11302008091050190910601A0910701B091080128
S1130210892B8A2B8B2B89F4BCDF80910001909170
S11302200101A0910201B091030180930501909313
S11302300601A0930701B09308010000DF91CF915C
S1130240FF91EF91BF91AF919F918F917F916F91AA
S11302505F914F913F912F910F9000925B000F900F
S113026000925F000F901F901895CF93DF9300D0FA
S1130270CDB7DEB78A83198227C088E290E028E0F0
S1130280FC01208388E290E028E230E0F90120813B
S1130290622F2A81222F30E04981442F50E002C08E
S11302A0359527954A95E2F72170262BFC0120838A
S11302B088E290E028E230E0F90120812460FC012A
S11302C0208389818F5F898389818830B0F288E2B5
S11302D090E028E230E0F90120812260FC012083D3
S11302E088E290E0FC01108200000F900F90DF91F3
S11302F0CF910895CF93DF93CDB7DEB780910A01F4
S1130300882F90E08130910581F0823091051CF4B2
S1130310892B39F04EC08230910539F10397B9F138
S113032048C081E080930A0144C080E290E0FC016F
S11303308081882F90E081709927892B21F482E0B5
S113034080930A0136C080E290E0FC018081882F0E
S113035090E082709927892B21F483E080930A012D
S113036028C081E080930A0124C080E290E0FC016F
S11303708081882F90E081709927892B21F482E075
S113038080930A0116C081E080930A0112C080E2C2
S113039090E0FC018081882F90E082709927892B5E
S11303A021F483E080930A0103C081E080930A0171
S11303B0000080910A01882F90E08130910581F03E
S11303C0823091051CF4892B39F020C082309105CC
S11303D059F0039791F01AC08FE08093090116C079
S11303E08091090142DF12C0809109018F5F8093DF
S11303F009018091090139DF09C080910901815007
S1130400809309018091090130DF00000000DF9131
S1130410CF910895CF93DF93CDB7DEB787E290E015
S11304202FEFFC01208388E290E0FC01108281E23E
S113043090E0FC01108282E290E02FEFFC01208327
S113044071DE6CE271E080E090E03EDE53DF00009C
S1130450809104018823E1F310920401F7CFF8940A
S1050460FFCFC8
S10704620100000091
S9030000FC
